:020000040000FA
:10000000C0590020D9000000DD000000851F00005D
:10001000E1000000000000000000000000000000FF
:10002000000000000000000000000000E3000000ED
:100030000000000000000000E50000002D28000086
:10004000E9000000E9000000E9000000F1060000FE
:10005000E9000000E9000000E9000000E9000000FC
:10006000E9000000E1060000F92B0000E9000000B3
:1000700095030000412B0000E9000000E9000000AA
:10008000E9000000E9000000E9000000E9000000CC
:10009000212B0000E9000000E9000000E900000059
:1000A000E9000000E9000000E9000000C92B0000A1
:1000B000E9000000E9000000E9000000E90000009C
:1000C0000448854600F004F9004800478D3B0000D5
:1000D000C046C046C059002004480047FEE7FEE77E
:1000E000FEE7FEE7FEE7FEE7FEE70000C1000000D6
:1000F00030B50B46014600202022012409E00D46C0
:10010000D5409D4205D31D469540491B2546954047
:1001100040191546521E002DF1DC30BD70B500248B
:100120002546002801DA01244042002901DA012590
:100130004942FFF7DDFFAC4200D04042002C00D026
:10014000494270BDF0B51FB40646002082B0054696
:100150004024019100901BE0019922460F46304651
:1001600000F0A4F8049A059B801A994110D3104618
:100170001946224600F08AF8361A8F410197224626
:1001800001200021009F00F081F838184D410090B7
:100190002046641E0028DFDC019B00982946324679
:1001A00007B0F0BDF0B51FB486B0002000900190FC
:1001B00002900698069980B204900798090C0204F0
:1001C0000014114307900027089D099806913E46A8
:1001D0003C4603900398A9B20204000C03900498D3
:1001E0002D0C154348430021224600F04FF8C71953
:1001F000714110340E46402CECDB3846029A00F078
:1002000045F8009A019B801800905941029801918D
:10021000103002904028CCDB00980BB0F0BD0346B4
:100220000B439B0703D009E008C9121F08C0042A2A
:10023000FAD203E00B780370401C491C521EF9D21D
:100240007047D2B201E00270401C491EFBD27047D9
:100250000022F6E710B513460A4604461946FFF792
:10026000F0FF204610BD0321001D401E037812023E
:100270001A43491EF9D510467047034603220870F9
:10028000000A491C521EFAD51846704710B5202A9C
:1002900004DB0146203A9140002010BD914020230C
:1002A0009C1A0346E3401943904010BD10B5202A24
:1002B00004DB0846203AD040002110BD0B46D34055
:1002C000D0402024A21A91400843194610BD0000D6
:1002D000064C0125064E05E0E36807CC2B430C3C99
:1002E00098471034B442F7D3FFF7EEFE7C4000008D
:1002F0009C40000070B586B007202149486000216D
:100300001F488160C1600161016241628162816355
:1003100081610121890441611A4819490860084630
:1003200000F028FD012016490864122003900020E7
:100330000290012004900D20059002A9104800F0C1
:100340002DFB0F48002301A9026C00F017FF0E4897
:1003500004680E48A043000CA1B288420DD12505C7
:100360002D0D019A1105090D094A6A431046FFF740
:10037000BFFE0646304606B070BD0020FBE7000019
:100380006401002000240140400208000000FFFF3B
:10039000B80B00001149096820221140002915D02E
:1003A0000E49496B88B20D49C9690905090D814299
:1003B00003D301210A4A117008E008498969090537
:1003C000090D814202D80121054A5170034909688B
:1003D0003F221143014A1160704700000024014090
:1003E0009804002010B50446FFF784FF27490860F1
:1003F0002748284908600121264881630120A04040
:100400002449486108204860002122488160016138
:1004100001628161C161C160416281620321C16287
:10042000012101630021416301201A4908641A482F
:1004300044600020184908600D20C8600120174959
:100440008860086008464460104801681448FFF757
:100450004FFE1249C8600D4801681248FFF748FE78
:100460000E49086110480B49C863084600F082FC39
:100470000A49084800F056F90120074988600548F4
:1004800000F08CFA034800F0E1FE10BDA40000204B
:100490000024014064010020E4010020F401002058
:1004A000CC3783002A596D00BC01002007490A8817
:1004B0000988491C8BB205490B800549885C0349B2
:1004C0000988CA05D20D01490A80704788040020B6
:1004D00088020020F0B504460D461646374610E067
:1004E0000A4801884088814206D0FFF7DFFF20706C
:1004F000641C6D1E374604E0781E071E01D1C01E25
:10050000F0BD002DECD10020FAE7000088040020A7
:100510001FB504461A2002F08FFA20200090032015
:10052000019001200290042003906946002001F010
:100530005FF8012000900320019001200290042028
:1005400003906946012001F053F802200090C00397
:10055000019001200290002003906946012001F0E3
:1005600047F8042000900320019001200290002011
:1005700003906946012001F03BF80022042101208C
:1005800001F03CFA1648174908600846446000210B
:10059000816103210902416100210161C160602183
:1005A00081600021C1610E48806B502108430C49D5
:1005B00088630A20012181400B4A116000BF052198
:1005C00001F0E0FF0A2001218140084A116000BFCC
:1005D000044801F0D3FB00210548418001801FBD84
:1005E000004800403402002080E200E000E100E02A
:1005F0008804002000BF0549096889690822114064
:100600000029F8D1014909680860704734020020C8
:10061000F8B5174801884088814227D0FFF746FF88
:100620000446022C22D1C21E03216846FFF752FF66
:10063000C4B26846417880780002081886B2701DFE
:1006400003F0E8FB0546032269462846FFF7E7FD6D
:100650000022D2433146E81CFFF73CFFC4B22846D3
:1006600002F0DCFE284603F0A3FB00BFF8BD00004B
:100670008804002010B501F0E5FD002803D03220E9
:100680000649487108E005484079002804D003482D
:100690004079401E0149487110BD000098040020B7
:1006A0001FB501200004019020200090012002903D
:1006B000002003906946012000F09AFF1FBD000052
:1006C00002480068401C0149086070471C00002077
:1006D00002480068401C014908607047180000206B
:1006E00010B5024800F012FE10BD0000BC01002051
:1006F00010B50121C903002000F05AFF0748007817
:10070000002806D001F0A9FD012805D10449087090
:1007100002E001200149087010BD00000000002027
:100720009800002000B502469B4B1068984201D00B
:10073000012000BD486800283DD0486801283AD013
:100740004868022837D04868032834D0486804280D
:1007500031D0486805282ED0486806282BD0486834
:10076000072828D04868082825D04868092822D0BA
:1007700048680A281FD048680B281CD048680C28F5
:1007800019D048680D2816D048680E2813D048683C
:100790000F2810D0486810280DD0486811280AD0BA
:1007A0004868122807D04868132804D048681428DD
:1007B00001D00120BDE7906B00287DD008680300C0
:1007C00002F07AFB07B5051B3147678AB500106850
:1007D0008068FF230133984313689860106880682D
:1007E0000123DB02184313689860106880680123B6
:1007F0009B02984313689860A8E010688068FF2304
:100800000133984313689860106880680123DB0205
:100810009843136898601068806801239B0218430E
:100820001368986092E010688068FF230133984352
:1008300013689860106880680123DB02184313680E
:1008400098601068806801239B02184313689860C1
:100850007CE010688068FF230133184313689860B8
:10086000106880680123DB021843136898601068E1
:10087000806801239B029843136898601068806821
:10088000400940010B79DB06DB0E184313689860C2
:100890005CE010688068FF23013318431368986098
:1008A000106880680123DB02984313689860106821
:1008B000806801239B0200E059E0184313689860A8
:1008C00010688068400140090B79DB06DB0EDB060F
:1008D00018431368986039E010688068FF2301337B
:1008E000184313689860106880680123DB0218437E
:1008F000136898601068806801239B02184313688E
:10090000986010688068400940010B79DB06DB0EB7
:1009100018431368986010688068400140090B799B
:10092000DB06DB0EDB061843136898600EE01068E8
:1009300080680123DB029843136898601068806820
:1009400001239B0298431368986000BF00BF88682A
:10095000002806D0106840682023184313685860A8
:1009600005E01068406820239843136858601069B8
:10097000002808D08889000413689861088A000458
:100980001368D86105E0C86813689861086913683E
:10099000D8610020CDE600000024014070B5054676
:1009A0000C46F2492868884201D0012070BD606879
:1009B00000283DD0606801283AD06068022837D00E
:1009C0006068032834D06068042831D06068052846
:1009D0002ED0606806282BD06068072828D0606871
:1009E000082825D06068092822D060680A281FD00E
:1009F00060680B281CD060680C2819D060680D282E
:100A000016D060680E2813D060680F2810D0606878
:100A100010280DD0606811280AD06068122807D00D
:100A20006068132804D06068142801D00120BDE755
:100A3000E06800282ED0E06801282BD0E06802286A
:100A400028D0E068032825D0E068042822D0E06898
:100A500005281FD0E06806281CD0E068072819D0B8
:100A6000E068082816D0E068092813D0E0680A2852
:100A700010D0E0680B280DD0E0680C280AD0E068A0
:100A80000D2807D0E0680E2804D0E0680F2801D0B8
:100A900001208BE7A06801282ED0A06802282BD067
:100AA000A068032828D0A068042825D0A0680528BD
:100AB00022D0A06806281FD0A06807281CD0A068F4
:100AC000082819D0A068092816D0A0680A2813D0D1
:100AD000A0680B2810D0A0680C280DD0A0680D28A5
:100AE0000AD0A0680E2807D0A0680F2804D0A068FC
:100AF000102801D0012059E72869002815D0606826
:100B0000082810D22868806B22790121914008437F
:100B1000296888632868C06B2279012191400843C5
:100B20002968C86314E0012040E7606808280FD2F4
:100B30002868806B22790121914088432968886365
:100B40002868C06B22790121914088432968C863D5
:100B5000606808280AD32868806B21790839012247
:100B60008A401040002801D001201FE7206800289B
:100B70005ED1A068002819D0A068052816D828687A
:100B8000006A217A8A008A181F2191408843227ABC
:100B90009300D21861689140227A9300D3181F22E3
:100BA0009A4011400843296808624BE0A068062873
:100BB0001CD3A0680B2819D82868406A217A891F9D
:100BC0008A008A181F2191408843227A921F93003D
:100BD000D21861689140227A921F9300D3181F2285
:100BE0009A4011400843296848622BE0A0680C280D
:100BF0001CD3A068102819D82868806A217A0C397B
:100C00008A008A181F2191408843227A0C3A930067
:100C1000D21861689140227A0C3A9300D3181F22AF
:100C20009A4011400843296888620BE00120BDE624
:100C30002868C06A400940012179C906C90E0843E5
:100C40002968C8622868006A000900014849096CDF
:100C5000491E0907090F08432968086260680728C8
:100C600013D82868006921798A000F2191408843B0
:100C700022799200E1689140227993000F229A40F4
:100C800011400843296808613BE06068082819D3CF
:100C900060680F2816D828684069217908398A00C9
:100CA0000F21914088432279083A9200E1689140EF
:100CB0002279083A93000F229A401140084329688C
:100CC00048611EE06068102819D36068142816D89F
:100CD0002868406C217910398A000F21914088439F
:100CE0002279103A9200E16891402279103A9300FB
:100CF0000F229A40114008432968486401E001200E
:100D000054E60121090468690840002809D02868D0
:100D1000006C01210843296808647D20C00001F0AF
:100D200059FE072189046869084000281CD02868FA
:100D3000C068802108432968C86001218904686966
:100D40000840002806D02868006C49030843296839
:100D5000086405E02868006C4000400829680864C1
:100D60007D20C00001F036FE00201FE60024014077
:100D70006401002010B50446002C01D1012010BDF3
:100D8000B6492068884201D00120F8E7A068002811
:100D900004D0A068012801D00120F0E7E068002815
:100DA00004D0E068012801D00120E8E7206900288C
:100DB00004D02069012801D00120E0E7206A002842
:100DC00004D0206A012801D00120D8E7606A0028F9
:100DD00004D0606A012801D00120D0E7A06A002871
:100DE00004D0A06A012801D00120C8E7E06A0028E9
:100DF00016D0E06A012813D0E06A022810D0E06A19
:100E000003280DD0E06A04280AD0E06A052807D03C
:100E1000E06A062804D0E06A072801D00120AEE786
:100E2000206B002819D0206B012816D0206B0228D7
:100E300013D0206B032810D0206B04280DD0206B1A
:100E400005280AD0206B062807D0206B072804D07D
:100E5000206B082801D0012091E7A06B002804D066
:100E6000A06B012801D0012089E7606800282ED0FE
:100E7000606801282BD06068022828D060680328A9
:100E800025D06068042822D0606805281FD06068DB
:100E900006281CD06068072819D06068082816D07A
:100EA0006068092813D060680A2810D060680B2891
:100EB0000DD060680C280AD060680D2807D06068E3
:100EC0000E2804D060680F2801D0012057E764493C
:100ED0006069884201D9012051E7A069002816D035
:100EE000A069012813D0A069022810D0A0690328A6
:100EF0000DD0A06904280AD0A069052807D0A069F0
:100F0000062804D0A069072801D0012037E75449FA
:100F1000E069884201D9012031E7204600F0A2F8BB
:100F20002068C0680121890608432168C8602068DC
:100F3000C068782188436168C9007822114008435D
:100F40002168C860A068002807D020688068012157
:100F5000490508432168886006E02068806801210F
:100F60004905884321688860606A012806D12068A5
:100F7000C068022108432168C86005E02068C06895
:100F8000022188432168C860A06A00283CD0E0683C
:100F9000002818D02068C06801214906084321684C
:100FA000C860606B002807D02068C068012109066E
:100FB00008432168C86006E02068C068012109066E
:100FC00088432168C8602068C068072149048843B5
:100FD000A18D490407225204114008432168C860CA
:100FE0002068C0680F2109058843218E09050F225A
:100FF0001205114008432168C8602068C0680121BB
:10100000090408432168C860206880680721090432
:101010008843218B090407221204114008432168E8
:101020008860E068002811D02068806801214902AA
:1010300008432168886020688068D1108843E1698E
:101040004903D21011400843216888602068006A73
:101050000009000121680862002090E60024014098
:10106000FFFF1F0030B5C1B00546F0223D4905A87D
:10107000FFF7D5F800243AE00C21614305AA515846
:1010800068690840002810D00C20604305A940186A
:101090008068019005200290002003900C2161439C
:1010A0008918087901A900F0A3FA0C20604305A96A
:1010B00040184068002805D00C2060434018406864
:1010C000012803D1002001F0B7FC0FE00C206043A1
:1010D00005A940184068022805D00C20604340183C
:1010E0004068032802D1012001F0A6FC641C0C20FA
:1010F000604305A90858401C0028BDD1286A002873
:1011000022D0E86B002803D0E86B00F037F91BE031
:1011100015481649086000211448C1600120134990
:101120004860010311488160002101610121C90665
:10113000416109128161C900C1610D480B49086212
:101140000C4848620846E863152001F075FC0C2045
:1011500001F082F90C2001218140074A116000BF93
:1011600041B030BD683F0000401102401401002032
:10117000D1060000C106000000E100E0F8B5044619
:101180000E4615461F46204600F060F8002801D0A4
:101190000120F8BD002E01D10120FAE76664009716
:1011A0004BE02068036802201840002810D0206817
:1011B000406B0121C9070843616C08602068006822
:1011C0000221084321680860606C001D60646D1E88
:1011D00004201840002810D02068006B01218907E6
:1011E0000843616C08602068006804210843216896
:1011F0000860606C001D60646D1E1020184000289F
:1012000005D0206800681021084321680860082084
:101210001840002806D0206800680821084321688B
:1012200008600CE00098002807D00098401E00904D
:101230000098002801D10320ABE7002DB1D100BFF9
:10124000204600F03BF80020A3E7000001461A4AC0
:101250000868904201D0012070470868006A0007C2
:10126000000F401C0A6C904201D00120F4E708688E
:10127000C068012210430A68D060086800683F22F5
:1012800010430A68106000BF08680068C007C00FFC
:101290000028F9D008688068072212041040000C6A
:1012A000002806D1086880680122120510430A68E8
:1012B00090600020D0E70000002401400146124A5F
:1012C0000868904201D001207047886800280CD03F
:1012D0000868C068042210430A68D06000BF08682C
:1012E000C068042210400028F9D10868C06840088E
:1012F00040000A68D060086800683F2210430A680E
:1013000010600020E0E700000024014070B50446B2
:1013100018492068401A4509174800680121A9406A
:101320000840002825D0144840680121A940084001
:1013300000280BD0104880680121A94008430E49BD
:101340008860206A002801D0206A80470A48C06867
:101350000121A940084000280BD00748006901215D
:10136000A940084304490861606A002801D0606A06
:10137000804770BD001102400010024010B50446C5
:1013800045492068884215D0434920312068884269
:1013900010D041494031206888420BD03E4960312D
:1013A0002068884206D03C4980312068884201D0BC
:1013B000012010BDA06800280AD00121C902A06840
:1013C000884205D04900A068884201D00120F0E79A
:1013D000E068202801D2012000E00020002801D18F
:1013E0000120E6E7A06900280AD001218904A0694C
:1013F000884205D04900A069884201D00120D8E781
:10140000E06900280AD001214905E069884205D039
:101410004900E069884201D00120CAE7132001F0A9
:101420000BFB092001F00EF80920012181401B4A25
:10143000116000BF01201A4908630020216808617B
:101440000121C902A068884203D1E0688101E160FE
:1014500007E001210903A068884202D1E068410049
:10146000E160E168A0680843216808610120C007C5
:101470002168C8602169606908432168C968084318
:101480002168C860A169E06908432168C968084308
:101490002168C86000208CE70011024000E100E0F4
:1014A000001002400146012000050068022210439E
:1014B000D20410600A4850600020086000BF01207C
:1014C00000054069C007C00F0028F8D001200005C2
:1014D000006802229043D20410600120704700008F
:1014E00055AAAA5510B50446204600F001F810BDD3
:1014F000FEB5054618492846FEF7FAFD2321484364
:10150000461C16492846FEF7F3FDC1004018471C4B
:1015100012492846FEF7ECFD332148430A2100908A
:10152000FEF7E6FD401D01900D48854201D90124DA
:1015300000E000240121090501988863084600683D
:101540001F21C9018843E101084301210905086001
:101550000846C6600761FEBD1027000040420F002C
:10156000005A620202469007800F002801D0002036
:101570007047012000050068012318431B0518600F
:101580000A485860116000BF012000054069C0078B
:10159000C00F0028F8D00120000500684008400076
:1015A00001231B0518600120E2E7000055AAAA5597
:1015B000002806D0012805D0022805D0032806D12E
:1015C00003E000BF084A03E000BF084A00E000BF94
:1015D00000BF012801D0032800D10904D36A0B40C1
:1015E000002B00D09162704700F0014000F40140F0
:1015F000F3B589B00C460020089006900590049041
:10160000039002900190099800280AD009980128B7
:1016100007D00998022804D00998032801D00BB0FC
:10162000F0BD208880B2002804D02068000C00049F
:10163000002800D0F3E7012109046068884226D021
:10164000491C6068884222D0D249606888421ED016
:10165000606803281BD0D0496068884217D0CF4902
:101660006068884213D0491C606888420FD0491CCA
:10167000606888420BD0491C6068884207D0491CCA
:101680006068884203D06068052800D0C7E7A0687A
:10169000002806D0A068012803D0A068022800D046
:1016A000BDE70998002806D0012805D0022824D0DB
:1016B000032843D122E000BFB94D002001F0BCF95E
:1016C000B8480490001D0390B64814300290001DE5
:1016D00001900998012808D1208800040790B1489A
:1016E00008380690001D059006E020680790AD4878
:1016F00010380690001D059021E000BFAA4D012082
:1017000001F09AF9A74830300490001D0390A548D5
:1017100044300290001D01900998032806D12088CA
:10172000000407909F482830069006E02068079044
:101730009C4820300690001D059000E000BF00BFCF
:101740001FE1012008998840064607990E40002EA7
:1017500074D0924A6068811A90424FD013DC934A49
:10176000811A904218D007DC03281ED08A494942CA
:10177000401800287ED119E0012911D08C480818A2
:10178000002877D10DE0012939D0022938D003296A
:1017900037D004297CD135E02868B043286078E050
:1017A00000BF28683043286073E000BF0898102805
:1017B00001D2089F02E008980746103F082F0CD27C
:1017C00006980068BA000F2191408843BA00E1688A
:1017D00091400843069908600FE005980068394673
:1017E00008398A000F21914088433A46083A92000E
:1017F000E16891400843059908604AE000BF00BFD6
:1018000000BF00BF2868B0432860A8693043A861C2
:1018100062496068884203D0491C6068884211D1DF
:10182000E869B043E861286AB04328625B496068B0
:10183000884204D1686A3043686203E09EE0686AC7
:10184000B04368625549891C6068884205D1E869DF
:10185000B043E861286A304328625049C91C606877
:10186000884203D0491C6068884210D1E86930433F
:10187000E86100E00CE04949C91C6068884203D176
:10188000686A3043686202E0686AB043686200E0F8
:1018900000BF00BFA06800280AD104980068B043C8
:1018A0000499086003980068B043039908601AE03F
:1018B000A06801280AD104980068304304990860A0
:1018C00003980068B043039908600CE0A068022800
:1018D00009D104980068B04304990860039800682F
:1018E000304303990860012109036068084000281B
:1018F00005D00298006830430299086004E002981D
:101900000068B043029908602849606808400028D0
:1019100026D00898102801D2089F02E008980746B0
:10192000103F082F0CD206980068BA000F21914092
:101930008843BA00002191400843069908600FE0EF
:1019400005980068394608398A000F21914088437C
:10195000394608398A0000219140084305990860FA
:101960006068052805D10198006830430199086036
:1019700004E001980068B043019908600898401C91
:10198000089008990798C840002800D0D9E600BF01
:1019900045E60000021001000410000000000110E4
:1019A00000F001407008014000F401400000010017
:1019B000FEEFFFFF0246002A06D0012A05D0022AC8
:1019C00005D0032A06D103E000BF0A4B03E000BFA5
:1019D000094B00E000BF00BF012A01D0032A00D15B
:1019E000090458690840002801D0012070470020F0
:1019F000FCE7000000F0014000F4014010B5134680
:101A0000002806D0012804D0022802D0032800D0E4
:101A100010BD8CB2002C03D00C0C2404002C00D080
:101A2000F6E7002B02D0012B00D0F1E7002806D00A
:101A3000012805D0022805D0032806D103E000BF05
:101A40000B4A03E000BF0B4A00E000BF00BF0128C3
:101A500001D0032800D10904012B03D114690C43E0
:101A6000146102E014698C43146100BFD0E70000E8
:101A700000F0014000F401400146484A08689042E5
:101A800020D0474A086890421CD0464A08689042D5
:101A900018D0454A0868904214D0444A08689042D9
:101AA00010D0434A0868904201D1012000E0002094
:101AB000404B0A689A4201D1012200E00022104303
:101AC000002801D0012000E00020002801D10120E1
:101AD000704704200A681060C868002806D00868AB
:101AE0000068802210430A68106005E008680068FA
:101AF000802290430A6810600A688868D0620A6889
:101B000048689062254A086890420BD0274A0868C6
:101B1000904207D0264A0868904203D0254A0868B8
:101B2000904202D10A680869106301200A68506176
:101B30001A4A0868904213D0194A086890420FD098
:101B4000194A086890420BD0184A0868904207D09A
:101B5000174A0868904203D0164A086890420BD191
:101B60000868006803221202904303231B028A695B
:101B70001A4010430A681060086800687022904399
:101B800070234A691A4010430A68106008680068A8
:101B9000042290430A681060002099E7002C01405D
:101BA00000040040001000400020004000400140C0
:101BB00000440140004801400F49884205D00F49C8
:101BC000884202D00E49884201D1012100E0002163
:101BD000002904D101680122114301607047816826
:101BE0004907490F062904D0016801221143016009
:101BF000F4E700BFF2E70000002C014000040040C1
:101C00000040014070B5044654492068884220D005
:101C10005349206888421CD052492068884218D015
:101C200051492068884214D050492068884210D019
:101C30004F492068884201D1012000E000204D4A30
:101C40002168914201D1012100E0002108430028D0
:101C500001D0012000E00020002801D1012070BD4A
:101C600025683E49681A8D4218D00CDC4248281875
:101C7000002820D003218902401A29D0012109031C
:101C8000401A66D131E005218902401A3AD001217B
:101C90008902401A43D0401A5BD14DE0142000F075
:101CA000E5FE1B2000F0C8FE0D2000F0C1FB0D205A
:101CB00000F0E6FB4FE0152000F0D8FE1C2000F0FD
:101CC000BBFE102000F0B4FB102000F0D9FB42E076
:101CD000162000F0CBFE1D2000F0AEFE112000F01B
:101CE000A7FB112000F0CCFB35E0182000F0BEFE71
:101CF0001F2000F0A1FE132000F09AFB132000F03B
:101D0000BFFB28E0192000F0B1FE202000F094FE77
:101D1000142000F08DFB142000F0B2FB1BE01A2011
:101D200000F0A4FE212000F087FE152000F080FBCB
:101D3000152000F0A5FB0EE01B2000F097FE2220EE
:101D400000F07AFE162000F073FB162000F098FBDE
:101D500001E0012083E700BF002080E7002C014064
:101D600000040040001000400020004000400140FE
:101D7000004401400048014000FCFFBF10B504468C
:101D800040492068884209D03F492068884205D0F0
:101D90003E492068884201D0012010BDA06800287B
:101DA0000AD0A068202807D0A068402804D0A068E6
:101DB000602801D00120F0E7E068002806D001216A
:101DC000C903E068884201D00120E6E720690028C5
:101DD00007D02069062804D02069022801D00120FC
:101DE000DBE7012149026069884212D0491060692D
:101DF00088420ED0032109026069884209D0244933
:101E00006069884205D023496069884201D0012079
:101E1000C3E7A06900280FD001218903A069884287
:101E20000AD04900A069884206D003218903A0692D
:101E3000884201D00120B0E7204600F02FF820466C
:101E400000F020FFE168A068084321690843216889
:101E5000C8626169A06908430121084321680863D9
:101E60000B496069884203D10B492068086006E08D
:101E700008496069884202D1022021684865002033
:101E80008BE700000038014000440040004800405B
:101E90000003001000030020140000201FB50446BA
:101EA00036492068884232D1092000F0C5FD032060
:101EB0004002009003200190012002900220039034
:101EC00069460020FFF794FB0121C903A06908407F
:101ED000002805D00811009069460020FFF788FB14
:101EE00001218903A0690840002805D088100090CE
:101EF00069460020FFF77CFB1B2000F08FFA0521CC
:101F00001B2000F003FB1B2000F0B0FA34E01C495A
:101F10002068884230D10A2000F08EFD0C2000900D
:101F200003200190012002900220039069460020C6
:101F3000FFF75EFB0121C903A0690840002805D016
:101F40000120009069460020FFF752FB0121890320
:101F5000A0690840002805D00220009069460020B2
:101F6000FFF746FB1C2000F059FA05211C2000F069
:101F7000CDFA1C2000F07AFA1FBD000000380140A5
:101F80000044004004E02722024903A000F084FF3F
:101F9000F9E70000543F000025732C2025640D0A4A
:101FA0000000000010B504460B490878091DFFF732
:101FB0001FFB094A516810780122FFF71FFD0749EE
:101FC0000878091DFFF714FB044A516810780022B5
:101FD000FFF714FD002010BDBC000020A800002069
:101FE00070B5054600242D480068082188432B4918
:101FF0000860002623E06006040E294A5168107824
:102000000122FFF7FBFC642000F0E4FC254A516844
:102010001078FFF7CFFC002801D0012000E000205D
:102020000443642000F0D6FC1D4A51681078002259
:10203000FFF7E4FC642000F0CDFC701CC6B2082E53
:10204000D9DB164800680821084314490860002DB0
:1020500006D0144A516810780122FFF7CFFC05E042
:10206000104A516810780022FFF7C8FC642000F085
:10207000B1FC0B4A516810780122FFF7BFFC6420C5
:1020800000F0A8FC064A516810780022FFF7B6FC61
:10209000642000F09FFC204670BD000000F001406D
:1020A000A8000020BC00002010B5144800680821DA
:1020B000084312490860124A516810780122FFF75C
:1020C0009DFC642000F086FC0E4A516810780122C5
:1020D000FFF794FC642000F07DFC094A51681078F9
:1020E0000022FFF78BFC642000F074FC054A516865
:1020F00010780022FFF782FC10BD000000F00140C4
:10210000BC000020A800002010B514480068082179
:10211000084312490860124A516810780022FFF7FC
:102120006DFC642000F056FC0E4A516810780122C4
:10213000FFF764FC642000F04DFC094A51681078F8
:102140000122FFF75BFC642000F044FC054A516863
:1021500010780022FFF752FC10BD000000F0014093
:10216000BC000020A800002070B504460D466000A9
:102170004019C6B2304600F001F870BD70B5044693
:102180002D480068082108432B490860002529E0F4
:1021900080202040002806D0284A5168107801226B
:1021A000FFF72CFC05E0254A516810780022FFF764
:1021B00025FC642000F00EFC214A516810780122B1
:1021C000FFF71CFCC82000F005FC6006040E1C4A4A
:1021D000516810780022FFF711FCC82000F0FAFBCC
:1021E000681CC5B2082DD3DB13480068082188435A
:1021F00011490860642000F0EDFB114A5168107825
:102200000122FFF7FBFB642000F0E4FB0B4A51685E
:102210001078FFF7CFFB0646094A51681078002274
:10222000FFF7ECFB642000F0D5FB012E01D101206B
:1022300070BD0020FCE7000000F00140BC00002061
:10224000A800002010B520210120FFF7B3FB0028D3
:1022500001D1012010BD0020FCE710B50121C90308
:102260000020FFF7A7FB10BD1FB50120000401905F
:102270004010009001200290002003906946FFF773
:10228000B7F91FBD10B5002400BF2BE01422624334
:10229000164BD218111D14226243985CFFF7A8F95F
:1022A00014226243124BD218111D14226243985C0F
:1022B000FFF79EF9142262430C4BD2185168142286
:1022C0006243985C0022FFF799FB14226243084B9B
:1022D000D218516814226243985C0122FFF78EFBEA
:1022E000601CC4B2032CD1DB10BD00002000002014
:1022F0005C000020F8B505460E460024002E01D1F2
:10230000012000E000200746032D1FDA00241AE018
:10231000AC420BD114226243164BD21851681422DE
:102320006243985C3246FFF769FB0AE0142262437D
:10233000104BD218516814226243985C3A46FFF75A
:102340005DFB601CC4B2032CE2DB12E0094A516859
:1023500010783246FFF752FB064A9169107D3246EB
:10236000FFF74CFB034AD16A2032107A3246FFF75E
:1023700045FBF8BD200000201FB50320019002207E
:102380000090012002900520039069460020FFF78D
:102390002FF90420009069460020FFF729F91FBD9E
:1023A00010B51C4880791C49097888420CD019481E
:1023B00080791949087008460078022802D000F098
:1023C0001DF901E000F024F91348007802281FD11C
:1023D0001048407A002804D0012808D0022812D1E1
:1023E0000BE0FF212D31012000F05CF90FE0FF210F
:1023F0004631012000F056F909E0FF215F3101204C
:1024000000F050F903E000200249487200BF00BF0D
:1024100010BD000098040020EA000020C206D20E81
:1024200001219140014A11607047000080E200E004
:10243000C206D20E01219140014A1160704700008E
:1024400080E200E0C206D20E01219140014A1160F3
:102450007047000080E200E0C206D20E01219140E8
:10246000014A11607047000080E200E0C206D20E0F
:1024700001219140014A11607047000000E100E035
:10248000C206D20E01219140014A1160704700003E
:1024900000E100E010B5002819DA1A4A03071B0F03
:1024A000083B9B089B00D2588307DC0EFF23A34008
:1024B0009A438B071B0E8407E40EA3401A43114B6B
:1024C0000407240F083CA408A4001A5118E00E4A7F
:1024D00003231B02D21883089B00D2588307DC0E0B
:1024E000FF23A3409A438B071B0E8407E40EA340EF
:1024F0001A43054B032424021B198408A4001A5113
:1025000010BD00001CED00E000E100E010B5002867
:1025100019DA1A4A03071B0F083B9B089B00D25885
:102520008307DC0EFF23A3409A438B071B0E84070F
:10253000E40EA3401A43114B0407240F083CA408DF
:10254000A4001A5118E00E4A03231B02D218830874
:102550009B00D2588307DC0EFF23A3409A438B07CE
:102560001B0E8407E40EA3401A43054B03242402E8
:102570001B198408A4001A5110BD00001CED00E0D6
:1025800000E100E010B5002819DA1A4A03071B0F12
:10259000083B9B089B00D2588307DC0EFF23A34017
:1025A0009A438B071B0E8407E40EA3401A43114B7A
:1025B0000407240F083CA408A4001A5118E00E4A8E
:1025C00003231B02D21883089B00D2588307DC0E1A
:1025D000FF23A3409A438B071B0E8407E40EA340FE
:1025E0001A43054B032424021B198408A4001A5122
:1025F00010BD00001CED00E000E100E00348006AAF
:1026000000090001014908627047000000400140D4
:1026100017488069C009C00115498861084680696A
:102620006C210843124988610846006A00090001CC
:1026300008620846006A0F2108430D4908620C48E9
:10264000403040680121C9030843094940314860CE
:1026500008464068000A0002486008464068FF21BA
:1026600008430349403148600020014948637047EE
:1026700000400140002801D0012801D1012200E0E2
:102680000022002A00D170477D22D200914200DD55
:102690001146002801D1024A916300BFF3E7000010
:1026A000002C014070B504460D46002C01D0012CD1
:1026B00001D1012000E00020002800D170BD002DD4
:1026C00003D100200C49C862F8E7FF205F30854243
:1026D00000DD0546AA2D00DAAA2529460748FDF7A0
:1026E0001DFD0646012C04D1701E0349C862700806
:1026F000486300BFE2E700000040014020A107005E
:102700001FB5074801904020009001200290002052
:10271000039069460120FEF76BFF00F096F81FBD9D
:1027200001000100F8B505460E460024002E01D137
:10273000012000E000200746022D1FDA00241AE0E5
:10274000AC420BD114226243134BD21851681422AD
:102750006243985C3246FFF751F90AE01422624363
:102760000D4BD218516814226243985C3A46FFF729
:1027700045F9601CC4B2022CE2DB0BE0064A51684A
:1027800010783246FFF73AF9034A9169107D3246D4
:10279000FFF734F9F8BD00005C00002010B5FF24FD
:1027A000FFF782FC00216A20FFF7DEFC104800786A
:1027B000FFF7E4FCFFF778FC01216A20FFF7D4FC67
:1027C0000120FFF70DFC0446FFF79EFC2246084857
:1027D000017808A000F060FB05480078401CC0B2FA
:1027E00003490870612801DD0020087010BD000059
:1027F000D00000204949432072656164206164640F
:10280000723A20253032782C206461743A202530C9
:1028100032780D0A0000000010B501E008C808C1B8
:102820001346521E002BF9D110BD0000024800686B
:10283000401C0149086070471000002010B50022BC
:1028400040210120FFF7DAF810BD10B50122402128
:102850001046FFF7D3F810BDF8B5054600200090EC
:102860000120000500681F21C9018843FF300130A5
:1028700001210905086051482818002811D04F4946
:10288000401800280BD049004018002805D0490006
:102890004018002807D1012407E0022405E00424A1
:1028A00003E0082401E00020F8BD00BF00260098E6
:1028B000012861D100270D204149886205E0414887
:1028C000874201D1012606E07F1C3D48806A102125
:1028D00008400028F3D000BF002E47D13848C06A16
:1028E000012108433649C8620846C06A01214905EA
:1028F00088433349C86200BF3148C06A0121890753
:1029000008400028F8D02E48C06A2F490840783087
:102910000121090308432A49C8620846C06A062102
:102920008843801D2649C8620846C06A012189057E
:1029300008432349C86200BF2148C06A01218907B2
:1029400008400028F8D01E484069000A0002611EB5
:1029500008431B49486100BF19484069C00FC007C0
:102960000028F9D004201649086105E01448806A5F
:1029700040084000124988620098002801D0002ECB
:1029800011D00F484069000A0002611E08430C493B
:10299000486100BF0A484069C00FC0070028F9D04D
:1029A0000020074908610948056009480560074893
:1029B0000068FEF797FD012076E7000000EE85FF36
:1029C0000008014040420F000700F0FF0400002013
:1029D0000800002001B500BF0098411E00910028AA
:1029E000FAD108BD014800687047000008000020C7
:1029F00001480068704700000400002010B50C4832
:102A00000068012109040843094908600021502099
:102A100000F042F801200649403108610548FFF7FF
:102A20001BFF002801D100BFFEE700F053F810BDE6
:102A3000000801400090D00300B50246062A08DDD8
:102A40000948C069D11F01238B4018430649C8615A
:102A500006E00548006A01219140084302490862E6
:102A60000220FFF7B7FF00BD0008014000B5024695
:102A70000848C0680121914088430649C860022087
:102A8000FFF7A8FF0348C0680121914008430149AE
:102A9000C86000BD0008014001290ED10B4AD26B6D
:102AA0000B4B1A4043011A43084BDA631A46D26BA8
:102AB000CB051A43054BDA6306E0044AD26B0123C7
:102AC000DB059A43014BDA637047000000080140C0
:102AD0001F00C0FF10B500200D4908607D21C9000E
:102AE0000C480068FDF704FB0446601E0A49884252
:102AF00000D90CE0601E094948610321081FFFF757
:102B0000C9FC0020054988610720086100BF10BD8D
:102B10001000002004000020FFFFFF0000E000E0A4
:102B200006480069C007C00F002805D003480069A7
:102B30004008400001490861704700000040014022
:102B400010B50D480069C007C00F002813D00A480F
:102B50000069400840000849086100F013FE00F0D9
:102B600061FF00F087FDFDF785FD044880790228AC
:102B700001D100F071FC10BD002C01409804002030
:102B800070B58EB004460E4615460094012103919F
:102B900000210591019502960491012149020691B7
:102BA0006846FFF72FF86846FEF766FF00202061B1
:102BB000E06801210843E0606069084360612046E5
:102BC000FEF7FAFF0EB070BD0948C06B1021084037
:102BD00000280BD000BF07488069802108400028EA
:102BE000F9D003480068C0B202490860704700008D
:102BF00000380140004400401F49C96B10221140B9
:102C0000002919D01C494031496811431A4A403201
:102C1000516019490968C8B218494A884988491C4D
:102C20008BB216494B801649885414494988CA0505
:102C3000D20D12494A801EE00F49C96B4022114053
:102C4000002918D00C494031496811430A4A4032E2
:102C5000516009490968C8B208494A884988491C2D
:102C60008BB206494B800649885404494988CA05F5
:102C7000D20D02494A807047004800408804002075
:102C800088020020F0B58FB00446FFF7ABFE089035
:102C9000606801010898FDF72BFA07906068010150
:102CA0000898FDF725FA0026059604916068000152
:102CB00003901F490020059E049D0D910C9028460D
:102CC00031460C9B0D9AFDF76DFA0191009000239F
:102CD000039AFDF737FA0591049040220021049FE2
:102CE00005980A9209910B903846099B0B99FDF7BC
:102CF00059FA104B0022C01851415A000023039189
:102D00000290FDF71FFA06900698402807D307980F
:102D1000401C2168486200202168886205E007980D
:102D2000216848620698216888620FB0F0BD0000F3
:102D300040420F0020A10700F0B595B004460D46B3
:102D400000940195002106910D49059100210491FF
:102D50000391602102916846FFF710F8A06B1021E3
:102D60000843A063FFF73EFE0646FFF741FE074615
:102D70003246394603A000F08FF815B0F0BD0000D0
:102D8000000300104D43552069732072756E6E6903
:102D90006E672C2048434C4B3D2564487A2C2050CC
:102DA000434C4B3D2564487A0D0A0000F7B5384B7B
:102DB0009D441646374868444068C505ED0DA90096
:102DC000344868444068471A002D0AD0002405E0C2
:102DD000A0003858A1006A465050641CAC42F7D39A
:102DE000761923E001204002401B8200A8006946BA
:102DF00043182848684401681846FDF710FA384619
:102E0000FEF750FB002407E0A2006B469958A20091
:102E1000D019FEF7A7FB641C012040028442F3D3C3
:102E2000002580003F18FF3EFF3E023E0120400289
:102E30008642D7D8002E27D0701B8200A800694692
:102E400043181448684401681846FDF7E8F9344609
:102E500005E0A0003858A1006A465050641C0120CB
:102E600040028442F5D33846FEF71CFB002407E0FD
:102E7000A2006B469958A200D019FEF773FB641CA0
:102E8000012040028442F3D3024B0C339D44F0BD39
:102E900000F8FFFF000800000FB410B503A9044BB1
:102EA000044A029800F026F810BC08BC04B0184789
:102EB000F93900001001002030B47446641E2578F2
:102EC000641CAB4204D3635D5B00E31830BC18475D
:102ED0001D46F8E702E008C8121F08C1002AFAD10F
:102EE00070477047002001E001C1121F002AFBD18A
:102EF00070470000FFB591B00F460546002606E07A
:102F000025280AD0149A139990476D1C761C2878AE
:102F10000028F5D1304615B0F0BD00240094012101
:102F2000F34A029400E004436D1C2B780846203BD2
:102F300098401042F7D128782A280ED0022228780B
:102F400001463039092915D800990A2359433039E7
:102F5000401814436D1C0090F1E701CF0090002849
:102F600005DA01204003044300984042009002200B
:102F700004436D1C28782E2815D10420044368785A
:102F80006D1C2A280AD101CF6D1C02900BE002991A
:102F90000A225143303940186D1C029028780146AE
:102FA00030390929F3D928786C2810D006DC4C2850
:102FB0001AD068280ED06A2817D104E0742813D0DC
:102FC0007A2812D110E00120400504430CE00121D1
:102FD000090501E0032109050C436978814203D109
:102FE0000120000524186D1C6D1C28786E281ED049
:102FF0000CDC632831D004DC00288BD0582811D198
:10300000B2E064287BD069280CD178E073282DD0F9
:1030100004DC6F2870D0702804D1A7E075286CD02C
:1030200078286BD0149A13999047761C62E060025E
:10303000400F022807D003280AD0042838680AD095
:1030400006603F1D56E03868F11706604160F8E7FA
:1030500038680680F5E70670F3E738786946087443
:103060000020487404A80390012003E0386803900E
:103070000020C0433F1D61070FD5002101E00199E9
:10308000491C029A0191914213DA8142F7DB019ABD
:103090000399895C0029F2D10BE0002101E001993C
:1030A000491C01918142FADB019A0399895C00294C
:1030B000F5D101990098139A401A00902146149B6B
:1030C00000F03CF901998019461807E0039803992C
:1030D0000078491C0391149A139990470198401E57
:1030E0000190401CF2D12146149B139A009800F0E5
:1030F00015F986196D1C0AE741E033E034E00A2037
:103100000021049005916002410F022905D001CFF2
:10311000C2179446032905D007E0FF1DFF08FF00F2
:1031200003CF06E000B2C2179446042902D140B290
:10313000C1178C4600226146944506DA0A460021F2
:10314000404291418C462D2102E0210504D52B21DE
:103150006A461176012103E0E10701D02021F7E75B
:10316000019155E00A200BE0102009E010200490A6
:1031700000210420044308200591029003E0082068
:103180000021059104906002410F022905D001CF72
:1031900000229446032906D006E0FF1DFF08FF0029
:1031A00003CF8C4603E080B2042900D1C0B20021D5
:1031B000019121072CD529780391702906D0049A12
:1031C0001021059B4A401A4305D00EE040216A4673
:1031D0001176012108E06146014306D030216A469C
:1031E00011760399517602210191049A0821059BD9
:1031F0004A401A430CD16146014301D1610707D50A
:1032000030216A461176012101910299491E0291ED
:103210002978582904D037A103910FA90F910DE007
:1032200039A1F9E76146059B049AFCF78BFF039BE4
:103230008C469B5C0F9A521E0F921370614601439D
:10324000F0D10F9807A9081A20300390600704D521
:10325000012000048443029801E0012002900399B8
:10326000884201DD401A00E00020411802900198D8
:1032700009180098401A0090E00306D42146149BD8
:10328000139A009800F05AF886190020049008E07C
:1032900006A9085C149A139990470498401C761C60
:1032A000049001998842F3DBE0030CD52146149B7E
:1032B000139A009800F042F8861904E0149A30201E
:1032C00013999047761C0299481E02900029F5DC5C
:1032D00008E00F980F990078491C0F91149A1399E0
:1032E0009047761C0399481E03900029F1DCFAE60A
:1032F00009280100303132333435363738396162CC
:10330000636465660000000030313233343536378F
:10331000383941424344454600000000F8B50446B0
:1033200000251E461746880404D405E039462020AF
:10333000B0476D1C641EF9D52846F8BDFFB504469C
:10334000002581B01E46C80301D5302700E02027A4
:10335000880404D505E038460399B0476D1C641E07
:10336000F9D5284605B0F0BD10B51220FFF764FB73
:103370000A480B4988600846406808210843084904
:1033800048600848486108464068012108430449EC
:1033900048600A210448FCF75BFF10BDFFFF0000F6
:1033A000000C014005800000A604002070B5044612
:1033B0000D462078022806DD0B490CA0FFF76CFDB6
:1033C0000120C04370BD20780D4948720E220121B2
:1033D00009040B48FFF7EAFC0948427A024909A0B0
:1033E000FFF75AFD0020EDE76A40000025732C200E
:1033F00070617261206572726F200D0A000000001A
:103400009804002025732C206D6F746F72206D6FEF
:1034100064653A202564200D0A00000070B504465A
:1034200000252246084909A0FFF736FD6078A178FB
:1034300009024518A9B220788000064B1A58E01CF2
:103440009047002070BD00005840000025732C25D7
:1034500073000000E000002010B51D48008800281F
:103460001FD11C48FCF7FFFE1B490978884204D095
:103470001848FCF7F8FE18490870174840781549B5
:103480000A39497A884204D012480A38407A1249E7
:1034900048700A2211491048801CFCF7C0FE00F059
:1034A0001FF80B480088401C80B209490880FF21A2
:1034B000F431884202DD0020054908800748FCF706
:1034C000D2FE441C05492046FCF7D7FE10BD000083
:1034D000E8000020A2040020B0040020A604002080
:1034E0003EB5062000F096FC04460D48007820709A
:1034F0000B48407860700A220949891CA01CFCF71F
:103500008EFE022168460170032141700C218170FA
:10351000019400F007F8204600F04AFC3EBD000090
:10352000B004002070B504462078FDF763F8124817
:10353000406801210843104948606078086060785D
:10354000FDF758F8A0780C490860A078FDF752F80C
:10355000A07800280FD0002509E06068405D06498A
:1035600008606168485DFDF745F8681C85B2A07881
:10357000A842F2DC00BF70BD000C014010B50C2168
:103580000F48FCF765FE0E210E48FCF761FE0E2287
:103590000C4901200004FFF73FF90A48407AFF2850
:1035A00009D10E210748FCF753FE0E220121090420
:1035B0000448FFF7FBFB002002498871487110BDE9
:1035C0008C0400209804002010B50E4880790E4924
:1035D0000978884214D00B4880790B490870084656
:1035E0000078002804D0012805D0022807D103E084
:1035F000FFF724F903E002E0FFF727F900BF00BF5F
:1036000010BD000098040020D800002010B5174815
:103610008079022822D11548407A154909788842D4
:1036200023D01248407A124908701048407A002886
:1036300003D10121FEF75EFE17E00C48407A012815
:1036400004D101210846FEF755FE0EE00748407AF6
:1036500002280AD10121FEF74DFE06E0FF200449B1
:10366000087000210320FEF745FE10BD98040020DD
:103670000C01002040480068401C3F490860642855
:1036800079D9002008603D48806801210905084378
:103690003A4988603A480078002814D00020384918
:1036A00008700846C079052803DA0846C079401C2E
:1036B000C8713348007A002830D03148007A401E63
:1036C0002F4908722AE02E484078002814D00020A4
:1036D0002B4948700846007A052803DA0846007A24
:1036E000401C08722648C079002817D02448C079A9
:1036F000401E2349C87111E02148C079002804D038
:103700001F48C079401E1E49C8711D48007A002814
:1037100004D01B48007A401E194908721848807866
:10372000002806D01648C079002802D114498870B4
:1037300021E01348C078002806D01148007A0028FC
:1037400002D10F49C87016E00D488078002807D1D3
:103750000B48C079042803DD0120094988700AE07C
:103760000748C078002806D10548007A042802DD01
:1037700001200349C8707047D40000200024014094
:103780009804002010B555480078554909788842BA
:1037900052D05248007852490870504800780028AA
:1037A0000BD14E49C88001210320FEF7BBFF4B48D7
:1037B000C1880020FEF75EFF8FE0484800780228AD
:1037C0000CD100204549C88000210846FEF7AAFF19
:1037D0004248C1880020FEF74DFF7EE03F48007858
:1037E00001280BD100203D49C8800121FEF79AFF36
:1037F0003A48C1880020FEF73DFF6EE03748007868
:10380000032815D13548C0887D21C900884207D1D9
:103810003248807A602188434030304988725CE0C9
:103820002E48807A6021884320302C49887254E0E9
:1038300000202A49087050E02848007803284CD11D
:103840000121FEF76FFF2548807A4006800F01288E
:103850001FD12248C0887D21C900884205DA1F484F
:10386000C088401C1D49C88032E01C480089401CAB
:1038700080B21A4908817D21C900884228DD174895
:10388000807A602188434030144988720020088182
:103890001EE01248C088012805D91048C088401E83
:1038A0000E49C88014E000200C49C88008460089F1
:1038B000401C80B208817D21C900884208DD07488C
:1038C000807A602188432030044988720020088172
:1038D0000248C1880020FEF7CDFE10BD8C040020F8
:1038E0000D0100201948807902281BD11748407922
:1038F00000280BD01548C078002803D001201449B7
:10390000087022E00320124908701EE00F488078FA
:10391000002803D002200E49087016E001200C494F
:10392000087012E00948407900280BD00748C07899
:10393000002803D001200649087006E0032004494E
:10394000087002E0002002490870704798040020C7
:103950008C04002027488079002804D001281ED03C
:10396000022840D12DE02348407900280DD021487D
:103970000079002805D000201E49087102208871B6
:103980000CE001201B49887108E01A4800790028E2
:1039900004D00020174908710220887127E01548DB
:1039A0004079002809D013480079002808D0002069
:1039B000104908710220887102E000200D498871C9
:1039C00015E00C48007900280CD000200949087146
:1039D00008464079002802D00120887102E00020CA
:1039E0000449887103E000200249887100BF00BFCC
:1039F000704700009804002002460948006800282B
:103A000000D1704706480068026000BF04480068A3
:103A10008069082318400028F8D11046F1E700001B
:103A20001400002010B5FEF718FC002801D001207A
:103A300000E0002030490870084640780300FFF796
:103A40003BFA05040E21425158002B48007800280B
:103A500004D00020284948800120487049E02648C9
:103A6000007800280AD024484088401C80B22249AF
:103A700048800A2805DD0220487002E000201E4927
:103A8000487036E01C48007800280DD01A4840885D
:103A9000401C80B2184948807D210901884211DD0F
:103AA0000320154948700DE013484068002803D0F2
:103AB00011494868804702E010A0FFF7EDF90020A7
:103AC0000D49487015E00C488068002803D00A4969
:103AD0008868804702E011A0FFF7DEF9042006495C
:103AE000487006E004480078002801D10249487077
:103AF00000BF00BF10BD000098000020686176651F
:103B0000206E6F2073686F727420707265737320FB
:103B100068616E646C657221210D0A0068617665CA
:103B2000206E6F206C6F6E672070726573732068F3
:103B3000616E646C657221210D0A000010B50CA045
:103B4000FFF7AAF91048807902280FD10E48407A71
:103B5000401CC0B20C494872022807DD00204872A0
:103B60000E22012109040848FFF720F910BD0000CA
:103B70006C6F6E672070726573732068616E646C21
:103B800065720D0A00000000980400200024FEF772
:103B900035FFE12149023148FFF7CEF8FEF7B0FDCD
:103BA000E1204002FCF7B4FC2D48FDF79BFC00F03F
:103BB000AFF80420FCF716FCFCF772FDFEF762FB81
:103BC000FEF752FBFFF7DAFCFFF7CEFB3F22254959
:103BD0002548FEF7D5FF7F2224492548FEF7D0FF70
:103BE00000F078F9FEF7C8FBFEF712FD0020FEF7A3
:103BF000D9F92048417A20A0FFF74EF9FEF72DFBB6
:103C00000546294621A0FFF747F91A48817924A0E3
:103C1000FFF742F927A0FFF73FF916480A30FCF7F3
:103C200022FB451C13490A312846FCF726FB13E00A
:103C3000FFF790FEFEF7B4FBFFF754FEFFF7E6FC3C
:103C4000FFF7C2FCFCF7E4FC601C044624498842F0
:103C500002D90024FEF7A2FDEAE700000038014087
:103C60000090D003E7030000002C0140CF070000C4
:103C700000400140980400206D6F746F72206D6FDA
:103C800064653A2025640D0A000000006B65792008
:103C90007374617475733A2025640D0A0000000086
:103CA000737973207374617475733A2025640D0AF7
:103CB000000000003D3D3D3D3D3D2053797374655E
:103CC0006D20496E6974616C697A6520436F6D700F
:103CD0006C6574656C79203D3D3D3D3D3D0D0A00B0
:103CE00000C409000146002000E0401C074A126998
:103CF0000301D2188A42F8D1044A9268521E034B3B
:103D00009A600022DB681A5470470000EC00002023
:103D100001200D4908700D4808610D48C8600D4824
:103D200048610D4888610020486008480B490860D8
:103D30000B4809680860002008490968486007497D
:103D40000968886070470000EC000020BC4100203A
:103D5000BC040020113D0000A53D0000080100202A
:103D6000BC05002000210E488068FF2201329042ED
:103D700001D90020704700E0491C0948C068405C38
:103D80000028F9D10120064AD268505404488068BE
:103D9000401C034A9060104600690A018018E9E758
:103DA000EC0000200148406870470000EC00002053
:103DB00070B505461548046806681548007800285F
:103DC00002D11349486980472068A84208D11048A9
:103DD00040686168401A0E4948600020606070BD0C
:103DE00010E02068A8420BD1094840686168401A79
:103DF00007494860A068B0602046FFF773FF00E005
:103E00002646A468002CECD100BFE8E7080100209A
:103E1000EC000020F8B5064600272C4804682C4822
:103E20000078002802D12A494869804725E0A06827
:103E300000686168401A2168471AB7421CD32348BA
:103E40000068844202D166602068F8BDFFF78AFFEF
:103E5000054661682068401828606E60A068A86008
:103E6000A5601B4840688019194948603146286898
:103E7000FCF7EEF92868E8E7A468A0680028D6D126
:103E8000134840680F218902081AB0421CD90F4814
:103E90000068844202D166602068D6E7FFF762FFBF
:103EA000054661682068401828606E60A068A860B8
:103EB000A560074840688019054948603146286870
:103EC000FCF7C6F92868C0E70020BEE7080100201B
:103ED000EC00002013488069FF2109028843114942
:103EE0008861084680691B21890208430D49886161
:103EF0000846006A302188430A4908620846006A79
:103F000030210843074908620648403040680121D3
:103F1000C9030843034940314860002001498863D0
:103F200070470000002C014010B503A0FEF7B4FF5D
:103F300001200749087110BD73686F727420707298
:103F40006573732068616E646C65720D0A00000011
:103F500098040020486172644661756C745F486122
:103F60006E646C6572000000010000000300000038
:103F7000200000000200000000000000100000000F
:103F80000400000000000000200000000800000005
:103F900000000000400000001000000000000000D1
:103FA000800000002000000002000000100000005F
:103FB000400000000200000020000000800000001F
:103FC00001000000010000000001000003000000EB
:103FD00010000000000200000000000008000000C7
:103FE00000040000000000000400000000080000C1
:103FF00000000000010000000010000002000000AE
:104000000800000000200000020000000400000082
:1040100000400000020000000200000000800000DC
:10402000020000000100000000000200000000008B
:104030000200000000000800010000000200000073
:10404000000010000100000004000000FFFFFFFF5F
:10405000000000000000000061707042526563655E
:10406000436F6D4C6F6F6B557000617070424D6F98
:104070006465537769746368000000009C40000029
:104080000000002014010000D42E0000B041000008
:1040900014010020AC580000E42E000000000000D5
:1040A0000000000000000000000000000000000010
:1040B00000000000000000000000000001000000FF
:1040C00000010000010001000100000000000000EC
:1040D00003000000080000000100010001000000D2
:1040E000000000000100000080000000010001004D
:1040F00001000000000000000000000001000000BE
:1041000001000100010000000000000001000000AB
:10411000100000000100010001000000000000008C
:104120000100000008000000030000000100000082
:104130000200000000000000293F00003D3B00009D
:10414000000000000000000010000000010001005D
:104150000100000000000000000000000800000056
:10416000000001000100000000000000000000004D
:1041700000000000FF00000000000000AD33000060
:10418000000000000000FF00000000000000000030
:10419000000000000000000000000000113D0000D1
:1041A000A53D000000000000FFFF0000000000002F
:04000005000000D91E
:00000001FF
